:02000004F90001
:1000000097110000938101E41381C191170500004D
:100010001305056197050000938585601386C181EE
:1000200063FCC5008322050023A05500130545008D
:1000300093854500E3E8C5FE1385C1819385018260
:100040006378B5002320050013054500E36CB5FE79
:10005000EF008053EF00C0516F0000006780000088
:1000600003254500135505011375F50F6780000042
:10007000130101FF23261100232481002322910074
:10008000130405009384050013050400EFF05FFDE1
:10009000E30C05FE232094008320C100032481008B
:1000A000832441001301010167800000130101FF57
:1000B00023261100232481002322910093040500AC
:1000C0001384050083450400638A050013041400AB
:1000D00013850400EFF0DFF96FF0DFFE8320C1002D
:1000E0000324810083244100130101016780000083
:1000F000B7470F0093870724B3D5F502B7C70000B1
:10010000938787FF3306F600832706003385A50211
:100110003305F50083270600B307F540E3DC07FE4F
:1001200067800000032545001315050113550501DF
:100130006780000003254500135505016780000016
:10014000130101FF232611002324810023229100A3
:10015000130405009384050013050400EFF09FFCD1
:10016000E30C05FE93E40410232094008320C100D7
:1001700003248100832441001301010167800000F2
:10018000130101FF2326110023248100130405001D
:1001900013050400EFF01FF9E30C05FE93070020A0
:1001A0002320F40013050400EFF0DFF8E30C05FE54
:1001B000032504001375F50F8320C100032481007B
:1001C0001301010167800000130101FF23261100C4
:1001D0002324810023229100130405009384050049
:1001E00013050400EFF01FF4E30C05FEB717000041
:1001F00093870788B3E4F400232094008320C10090
:100200000324810083244100130101016780000061
:10021000130101FF232611002324810023229100D2
:10022000130405009384050013050400EFF09FEF0D
:10023000E30C05FEB717000093870780B3E4F400D2
:10024000232094008320C1000324810083244100E3
:10025000130101016780000083A7050003A7450083
:1002600013171700B3E7E70003A78500131747002C
:10027000B3E7E7002324F50083A7C5002320F50298
:1002800083A705012322F50283A745012324F50254
:1002900083A785012326F50267800000130101FF73
:1002A00023261100EFF05FF28320C100130101014A
:1002B00067800000130101FF23261100EFF05FF5B6
:1002C0008320C1001301010167800000130101FDBB
:1002D00023261102232201002324010023260100EA
:1002E000930720002328F100232AF100232CF1009A
:1002F000232EF10093054100EFF01FF68320C10289
:100300001301010367800000130101FF2326110080
:100310002324810023229100130405009384050007
:10032000EFF0DFFA9385040013050400EFF09FF867
:100330008320C100032481008324410013010101B3
:1003400067800000130101FF232611009305B00A06
:10035000EFF01FDF8320C10013010101678000005F
:10036000130101FF23261100232481002322910081
:100370001304050093840500EFF05FF213050400F9
:10038000EFF05FFC9385040013050400EFF09FF28B
:100390003706B0F8B7B5C404938505401305800C43
:1003A000EFF01FD58320C100032481008324410086
:1003B0001301010167800000130101FE232E1100CB
:1003C000232C8100232A9100232821012326310197
:1003D00013090500938405001304060093890600A1
:1003E0009305B000EFF0DFD593D5040193F5F50F39
:1003F00013050900EFF0DFD493D5840093F5F50FD2
:1004000013050900EFF0DFD393F5F40F130509008E
:10041000EFF01FD39305000013050900EFF05FD242
:100420009304000063FE340113050900EFF05FD56B
:100430002300A40093841400130414006FF09FFEA3
:100440008320C10103248101832441010329010187
:100450008329C1001301010267800000130101FE1E
:10046000232E1100232C8100232A9100232821010F
:100470002326310123244101130405009384050040
:100480001309060093890600130A0700EFF01FE125
:1004900093060A001386090093050900130504005A
:1004A000EFF09FF19385040013050400EFF09FE047
:1004B0008320C10103248101832441010329010117
:1004C0008329C100032A8100130101026780000013
:1004D000130101FF2326110093050000374501F8A1
:1004E000EFF09FE293050000374501F8EFF05FE77A
:1004F000B70500F99385C561370501F8EFF01FBB1B
:1005000037070400B70600013706400093050000D6
:10051000374501F8EFF09FF4B70500F99385C56200
:10052000370501F8EFF09FB837070C00B706040154
:100530003706480093050000374501F8EFF01FF239
:10054000B70500F99385C563370501F8EFF01FB6CD
:10055000130600009305000013050000B707000113
:10056000E78007008320C1001301010167800000BC
:10057000130101FF23261100EFF09FF58320C10036
:100580001301010167800000130101FF2324810092
:100590002320210117040000130484081709000018
:1005A00013090908330989402326110023229100E9
:1005B00013592940630E09009304000083270400A7
:1005C0009384140013044400E7800700E31899FEA5
:1005D000170400001304C404170900001309490498
:1005E0003309894013592940630E09009304000020
:1005F000832704009384140013044400E780070059
:10060000E31899FE8320C100032481008324410064
:0C061000032901001301010167800000B4
:10061C004F70656E53424920636F70790A00000079
:10062C00552D426F6F7420636F70790A00000000C3
:10063C005061796C6F616420626F6F740A00000006
:0E064C000000000000000000000000000000A0
:04000005F9000000FE
:00000001FF
